{
  "_format": "hh-sol-artifact-1",
  "contractName": "PaymentRouter",
  "sourceName": "contracts/PaymentRouter.sol",
  "abi": [
    {
      "anonymous": false,
      "inputs": [
        {
          "indexed": true,
          "internalType": "bytes32",
          "name": "invoiceId",
          "type": "bytes32"
        },
        {
          "indexed": true,
          "internalType": "address",
          "name": "merchant",
          "type": "address"
        },
        {
          "indexed": true,
          "internalType": "address",
          "name": "payer",
          "type": "address"
        },
        {
          "indexed": false,
          "internalType": "address",
          "name": "token",
          "type": "address"
        },
        {
          "indexed": false,
          "internalType": "uint256",
          "name": "amount",
          "type": "uint256"
        },
        {
          "indexed": false,
          "internalType": "uint256",
          "name": "timestamp",
          "type": "uint256"
        }
      ],
      "name": "PaymentReceived",
      "type": "event"
    },
    {
      "inputs": [
        {
          "internalType": "address",
          "name": "token",
          "type": "address"
        },
        {
          "internalType": "address",
          "name": "merchant",
          "type": "address"
        },
        {
          "internalType": "uint256",
          "name": "amount",
          "type": "uint256"
        },
        {
          "internalType": "bytes32",
          "name": "invoiceId",
          "type": "bytes32"
        },
        {
          "internalType": "uint256",
          "name": "expiresAt",
          "type": "uint256"
        }
      ],
      "name": "pay",
      "outputs": [],
      "stateMutability": "nonpayable",
      "type": "function"
    },
    {
      "inputs": [
        {
          "internalType": "bytes32",
          "name": "",
          "type": "bytes32"
        }
      ],
      "name": "usedInvoices",
      "outputs": [
        {
          "internalType": "bool",
          "name": "",
          "type": "bool"
        }
      ],
      "stateMutability": "view",
      "type": "function"
    }
  ],
  "bytecode": "0x6080604052348015600f57600080fd5b5061083a8061001f6000396000f3fe608060405234801561001057600080fd5b50600436106100365760003560e01c806317c3b13f1461003b578063bec6021b1461006b575b600080fd5b61005560048036038101906100509190610354565b610087565b604051610062919061039c565b60405180910390f35b6100856004803603810190610080919061044b565b6100a7565b005b60006020528060005260406000206000915054906101000a900460ff1681565b804211156100ea576040517f08c379a00000000000000000000000000000000000000000000000000000000081526004016100e190610549565b60405180910390fd5b60008083815260200190815260200160002060009054906101000a900460ff161561014a576040517f08c379a0000000000000000000000000000000000000000000000000000000008152600401610141906105db565b60405180910390fd5b600073ffffffffffffffffffffffffffffffffffffffff168473ffffffffffffffffffffffffffffffffffffffff16036101b9576040517f08c379a00000000000000000000000000000000000000000000000000000000081526004016101b09061066d565b60405180910390fd5b600083116101fc576040517f08c379a00000000000000000000000000000000000000000000000000000000081526004016101f3906106ff565b60405180910390fd5b600160008084815260200190815260200160002060006101000a81548160ff0219169083151502179055508473ffffffffffffffffffffffffffffffffffffffff166323b872dd3386866040518463ffffffff1660e01b81526004016102649392919061073d565b6020604051808303816000875af1158015610283573d6000803e3d6000fd5b505050506040513d601f19601f820116820180604052508101906102a791906107a0565b503373ffffffffffffffffffffffffffffffffffffffff168473ffffffffffffffffffffffffffffffffffffffff16837f472850793b6a3289eaa6a4f4cc02bfc3bc577b591e0ba6fbddd8d6dbdca159b288874260405161030a939291906107cd565b60405180910390a45050505050565b600080fd5b6000819050919050565b6103318161031e565b811461033c57600080fd5b50565b60008135905061034e81610328565b92915050565b60006020828403121561036a57610369610319565b5b60006103788482850161033f565b91505092915050565b60008115159050919050565b61039681610381565b82525050565b60006020820190506103b1600083018461038d565b92915050565b600073ffffffffffffffffffffffffffffffffffffffff82169050919050565b60006103e2826103b7565b9050919050565b6103f2816103d7565b81146103fd57600080fd5b50565b60008135905061040f816103e9565b92915050565b6000819050919050565b61042881610415565b811461043357600080fd5b50565b6000813590506104458161041f565b92915050565b600080600080600060a0868803121561046757610466610319565b5b600061047588828901610400565b955050602061048688828901610400565b945050604061049788828901610436565b93505060606104a88882890161033f565b92505060806104b988828901610436565b9150509295509295909350565b600082825260208201905092915050565b7f5061796d656e74526f757465723a20696e766f6963652068617320657870697260008201527f6564000000000000000000000000000000000000000000000000000000000000602082015250565b60006105336022836104c6565b915061053e826104d7565b604082019050919050565b6000602082019050818103600083015261056281610526565b9050919050565b7f5061796d656e74526f757465723a20696e766f6963652068617320616c72656160008201527f6479206265656e20757365640000000000000000000000000000000000000000602082015250565b60006105c5602c836104c6565b91506105d082610569565b604082019050919050565b600060208201905081810360008301526105f4816105b8565b9050919050565b7f5061796d656e74526f757465723a206d65726368616e742063616e6e6f74206260008201527f65207a65726f2061646472657373000000000000000000000000000000000000602082015250565b6000610657602e836104c6565b9150610662826105fb565b604082019050919050565b600060208201905081810360008301526106868161064a565b9050919050565b7f5061796d656e74526f757465723a20616d6f756e74206d75737420626520677260008201527f6561746572207468616e207a65726f0000000000000000000000000000000000602082015250565b60006106e9602f836104c6565b91506106f48261068d565b604082019050919050565b60006020820190508181036000830152610718816106dc565b9050919050565b610728816103d7565b82525050565b61073781610415565b82525050565b6000606082019050610752600083018661071f565b61075f602083018561071f565b61076c604083018461072e565b949350505050565b61077d81610381565b811461078857600080fd5b50565b60008151905061079a81610774565b92915050565b6000602082840312156107b6576107b5610319565b5b60006107c48482850161078b565b91505092915050565b60006060820190506107e2600083018661071f565b6107ef602083018561072e565b6107fc604083018461072e565b94935050505056fea264697066735822122061cf19c2aae81f63eb715214c253805b5ce71ad5fb9afea39821b8e62f54a70464736f6c634300081c0033",
  "linkReferences": {},
  "deployedLinkReferences": {}
}