{
  "_format": "hh-sol-artifact-1",
  "contractName": "PaymentRouter",
  "sourceName": "contracts/PaymentRouter.sol",
  "abi": [
    {
      "anonymous": false,
      "inputs": [
        {
          "indexed": true,
          "internalType": "bytes32",
          "name": "invoiceId",
          "type": "bytes32"
        },
        {
          "indexed": true,
          "internalType": "address",
          "name": "merchant",
          "type": "address"
        },
        {
          "indexed": true,
          "internalType": "address",
          "name": "payer",
          "type": "address"
        },
        {
          "indexed": false,
          "internalType": "address",
          "name": "token",
          "type": "address"
        },
        {
          "indexed": false,
          "internalType": "uint256",
          "name": "amount",
          "type": "uint256"
        },
        {
          "indexed": false,
          "internalType": "uint256",
          "name": "timestamp",
          "type": "uint256"
        }
      ],
      "name": "PaymentReceived",
      "type": "event"
    },
    {
      "inputs": [
        {
          "internalType": "address",
          "name": "token",
          "type": "address"
        },
        {
          "internalType": "address",
          "name": "merchant",
          "type": "address"
        },
        {
          "internalType": "uint256",
          "name": "amount",
          "type": "uint256"
        },
        {
          "internalType": "bytes32",
          "name": "invoiceId",
          "type": "bytes32"
        }
      ],
      "name": "pay",
      "outputs": [],
      "stateMutability": "nonpayable",
      "type": "function"
    }
  ],
  "bytecode": "0x6080604052348015600f57600080fd5b506105818061001f6000396000f3fe608060405234801561001057600080fd5b506004361061002b5760003560e01c80633e8bca6814610030575b600080fd5b61004a600480360381019061004591906102be565b61004c565b005b600073ffffffffffffffffffffffffffffffffffffffff168373ffffffffffffffffffffffffffffffffffffffff16036100bb576040517f08c379a00000000000000000000000000000000000000000000000000000000081526004016100b2906103a8565b60405180910390fd5b600082116100fe576040517f08c379a00000000000000000000000000000000000000000000000000000000081526004016100f59061043a565b60405180910390fd5b8373ffffffffffffffffffffffffffffffffffffffff166323b872dd3385856040518463ffffffff1660e01b815260040161013b93929190610478565b6020604051808303816000875af115801561015a573d6000803e3d6000fd5b505050506040513d601f19601f8201168201806040525081019061017e91906104e7565b503373ffffffffffffffffffffffffffffffffffffffff168373ffffffffffffffffffffffffffffffffffffffff16827f472850793b6a3289eaa6a4f4cc02bfc3bc577b591e0ba6fbddd8d6dbdca159b28786426040516101e193929190610514565b60405180910390a450505050565b600080fd5b600073ffffffffffffffffffffffffffffffffffffffff82169050919050565b600061021f826101f4565b9050919050565b61022f81610214565b811461023a57600080fd5b50565b60008135905061024c81610226565b92915050565b6000819050919050565b61026581610252565b811461027057600080fd5b50565b6000813590506102828161025c565b92915050565b6000819050919050565b61029b81610288565b81146102a657600080fd5b50565b6000813590506102b881610292565b92915050565b600080600080608085870312156102d8576102d76101ef565b5b60006102e68782880161023d565b94505060206102f78782880161023d565b935050604061030887828801610273565b9250506060610319878288016102a9565b91505092959194509250565b600082825260208201905092915050565b7f5061796d656e74526f757465723a206d65726368616e742063616e6e6f74206260008201527f65207a65726f2061646472657373000000000000000000000000000000000000602082015250565b6000610392602e83610325565b915061039d82610336565b604082019050919050565b600060208201905081810360008301526103c181610385565b9050919050565b7f5061796d656e74526f757465723a20616d6f756e74206d75737420626520677260008201527f6561746572207468616e207a65726f0000000000000000000000000000000000602082015250565b6000610424602f83610325565b915061042f826103c8565b604082019050919050565b6000602082019050818103600083015261045381610417565b9050919050565b61046381610214565b82525050565b61047281610252565b82525050565b600060608201905061048d600083018661045a565b61049a602083018561045a565b6104a76040830184610469565b949350505050565b60008115159050919050565b6104c4816104af565b81146104cf57600080fd5b50565b6000815190506104e1816104bb565b92915050565b6000602082840312156104fd576104fc6101ef565b5b600061050b848285016104d2565b91505092915050565b6000606082019050610529600083018661045a565b6105366020830185610469565b6105436040830184610469565b94935050505056fea2646970667358221220318bbc536007e5cb752f815ddf4734a671ed25393399d0c2769674921846f3c064736f6c634300081c0033",
  "linkReferences": {},
  "deployedLinkReferences": {}
}