{
  "contracts/PaymentRouter.sol": {
    "PaymentRouter": {
      "abi": [
        {
          "anonymous": false,
          "inputs": [
            {
              "indexed": true,
              "internalType": "bytes32",
              "name": "invoiceId",
              "type": "bytes32"
            },
            {
              "indexed": true,
              "internalType": "address",
              "name": "merchant",
              "type": "address"
            },
            {
              "indexed": true,
              "internalType": "address",
              "name": "payer",
              "type": "address"
            },
            {
              "indexed": false,
              "internalType": "address",
              "name": "token",
              "type": "address"
            },
            {
              "indexed": false,
              "internalType": "uint256",
              "name": "amount",
              "type": "uint256"
            },
            {
              "indexed": false,
              "internalType": "uint256",
              "name": "timestamp",
              "type": "uint256"
            }
          ],
          "name": "PaymentReceived",
          "type": "event"
        },
        {
          "inputs": [
            {
              "internalType": "address",
              "name": "token",
              "type": "address"
            },
            {
              "internalType": "address",
              "name": "merchant",
              "type": "address"
            },
            {
              "internalType": "uint256",
              "name": "amount",
              "type": "uint256"
            },
            {
              "internalType": "bytes32",
              "name": "invoiceId",
              "type": "bytes32"
            }
          ],
          "name": "pay",
          "outputs": [],
          "stateMutability": "nonpayable",
          "type": "function"
        }
      ],
      "evm": {
        "bytecode": {
          "linkReferences": {},
          "object": "6080604052348015600f57600080fd5b506105818061001f6000396000f3fe608060405234801561001057600080fd5b506004361061002b5760003560e01c80633e8bca6814610030575b600080fd5b61004a600480360381019061004591906102be565b61004c565b005b600073ffffffffffffffffffffffffffffffffffffffff168373ffffffffffffffffffffffffffffffffffffffff16036100bb576040517f08c379a00000000000000000000000000000000000000000000000000000000081526004016100b2906103a8565b60405180910390fd5b600082116100fe576040517f08c379a00000000000000000000000000000000000000000000000000000000081526004016100f59061043a565b60405180910390fd5b8373ffffffffffffffffffffffffffffffffffffffff166323b872dd3385856040518463ffffffff1660e01b815260040161013b93929190610478565b6020604051808303816000875af115801561015a573d6000803e3d6000fd5b505050506040513d601f19601f8201168201806040525081019061017e91906104e7565b503373ffffffffffffffffffffffffffffffffffffffff168373ffffffffffffffffffffffffffffffffffffffff16827f472850793b6a3289eaa6a4f4cc02bfc3bc577b591e0ba6fbddd8d6dbdca159b28786426040516101e193929190610514565b60405180910390a450505050565b600080fd5b600073ffffffffffffffffffffffffffffffffffffffff82169050919050565b600061021f826101f4565b9050919050565b61022f81610214565b811461023a57600080fd5b50565b60008135905061024c81610226565b92915050565b6000819050919050565b61026581610252565b811461027057600080fd5b50565b6000813590506102828161025c565b92915050565b6000819050919050565b61029b81610288565b81146102a657600080fd5b50565b6000813590506102b881610292565b92915050565b600080600080608085870312156102d8576102d76101ef565b5b60006102e68782880161023d565b94505060206102f78782880161023d565b935050604061030887828801610273565b9250506060610319878288016102a9565b91505092959194509250565b600082825260208201905092915050565b7f5061796d656e74526f757465723a206d65726368616e742063616e6e6f74206260008201527f65207a65726f2061646472657373000000000000000000000000000000000000602082015250565b6000610392602e83610325565b915061039d82610336565b604082019050919050565b600060208201905081810360008301526103c181610385565b9050919050565b7f5061796d656e74526f757465723a20616d6f756e74206d75737420626520677260008201527f6561746572207468616e207a65726f0000000000000000000000000000000000602082015250565b6000610424602f83610325565b915061042f826103c8565b604082019050919050565b6000602082019050818103600083015261045381610417565b9050919050565b61046381610214565b82525050565b61047281610252565b82525050565b600060608201905061048d600083018661045a565b61049a602083018561045a565b6104a76040830184610469565b949350505050565b60008115159050919050565b6104c4816104af565b81146104cf57600080fd5b50565b6000815190506104e1816104bb565b92915050565b6000602082840312156104fd576104fc6101ef565b5b600061050b848285016104d2565b91505092915050565b6000606082019050610529600083018661045a565b6105366020830185610469565b6105436040830184610469565b94935050505056fea2646970667358221220318bbc536007e5cb752f815ddf4734a671ed25393399d0c2769674921846f3c064736f6c634300081c0033",
          "opcodes": "PUSH1 0x80 PUSH1 0x40 MSTORE CALLVALUE DUP1 ISZERO PUSH1 0xF JUMPI PUSH1 0x0 DUP1 REVERT JUMPDEST POP PUSH2 0x581 DUP1 PUSH2 0x1F PUSH1 0x0 CODECOPY PUSH1 0x0 RETURN INVALID PUSH1 0x80 PUSH1 0x40 MSTORE CALLVALUE DUP1 ISZERO PUSH2 0x10 JUMPI PUSH1 0x0 DUP1 REVERT JUMPDEST POP PUSH1 0x4 CALLDATASIZE LT PUSH2 0x2B JUMPI PUSH1 0x0 CALLDATALOAD PUSH1 0xE0 SHR DUP1 PUSH4 0x3E8BCA68 EQ PUSH2 0x30 JUMPI JUMPDEST PUSH1 0x0 DUP1 REVERT JUMPDEST PUSH2 0x4A PUSH1 0x4 DUP1 CALLDATASIZE SUB DUP2 ADD SWAP1 PUSH2 0x45 SWAP2 SWAP1 PUSH2 0x2BE JUMP JUMPDEST PUSH2 0x4C JUMP JUMPDEST STOP JUMPDEST PUSH1 0x0 PUSH20 0xFFFFFFFFFFFFFFFFFFFFFFFFFFFFFFFFFFFFFFFF AND DUP4 PUSH20 0xFFFFFFFFFFFFFFFFFFFFFFFFFFFFFFFFFFFFFFFF AND SUB PUSH2 0xBB JUMPI PUSH1 0x40 MLOAD PUSH32 0x8C379A000000000000000000000000000000000000000000000000000000000 DUP2 MSTORE PUSH1 0x4 ADD PUSH2 0xB2 SWAP1 PUSH2 0x3A8 JUMP JUMPDEST PUSH1 0x40 MLOAD DUP1 SWAP2 SUB SWAP1 REVERT JUMPDEST PUSH1 0x0 DUP3 GT PUSH2 0xFE JUMPI PUSH1 0x40 MLOAD PUSH32 0x8C379A000000000000000000000000000000000000000000000000000000000 DUP2 MSTORE PUSH1 0x4 ADD PUSH2 0xF5 SWAP1 PUSH2 0x43A JUMP JUMPDEST PUSH1 0x40 MLOAD DUP1 SWAP2 SUB SWAP1 REVERT JUMPDEST DUP4 PUSH20 0xFFFFFFFFFFFFFFFFFFFFFFFFFFFFFFFFFFFFFFFF AND PUSH4 0x23B872DD CALLER DUP6 DUP6 PUSH1 0x40 MLOAD DUP5 PUSH4 0xFFFFFFFF AND PUSH1 0xE0 SHL DUP2 MSTORE PUSH1 0x4 ADD PUSH2 0x13B SWAP4 SWAP3 SWAP2 SWAP1 PUSH2 0x478 JUMP JUMPDEST PUSH1 0x20 PUSH1 0x40 MLOAD DUP1 DUP4 SUB DUP2 PUSH1 0x0 DUP8 GAS CALL ISZERO DUP1 ISZERO PUSH2 0x15A JUMPI RETURNDATASIZE PUSH1 0x0 DUP1 RETURNDATACOPY RETURNDATASIZE PUSH1 0x0 REVERT JUMPDEST POP POP POP POP PUSH1 0x40 MLOAD RETURNDATASIZE PUSH1 0x1F NOT PUSH1 0x1F DUP3 ADD AND DUP3 ADD DUP1 PUSH1 0x40 MSTORE POP DUP2 ADD SWAP1 PUSH2 0x17E SWAP2 SWAP1 PUSH2 0x4E7 JUMP JUMPDEST POP CALLER PUSH20 0xFFFFFFFFFFFFFFFFFFFFFFFFFFFFFFFFFFFFFFFF AND DUP4 PUSH20 0xFFFFFFFFFFFFFFFFFFFFFFFFFFFFFFFFFFFFFFFF AND DUP3 PUSH32 0x472850793B6A3289EAA6A4F4CC02BFC3BC577B591E0BA6FBDDD8D6DBDCA159B2 DUP8 DUP7 TIMESTAMP PUSH1 0x40 MLOAD PUSH2 0x1E1 SWAP4 SWAP3 SWAP2 SWAP1 PUSH2 0x514 JUMP JUMPDEST PUSH1 0x40 MLOAD DUP1 SWAP2 SUB SWAP1 LOG4 POP POP POP POP JUMP JUMPDEST PUSH1 0x0 DUP1 REVERT JUMPDEST PUSH1 0x0 PUSH20 0xFFFFFFFFFFFFFFFFFFFFFFFFFFFFFFFFFFFFFFFF DUP3 AND SWAP1 POP SWAP2 SWAP1 POP JUMP JUMPDEST PUSH1 0x0 PUSH2 0x21F DUP3 PUSH2 0x1F4 JUMP JUMPDEST SWAP1 POP SWAP2 SWAP1 POP JUMP JUMPDEST PUSH2 0x22F DUP2 PUSH2 0x214 JUMP JUMPDEST DUP2 EQ PUSH2 0x23A JUMPI PUSH1 0x0 DUP1 REVERT JUMPDEST POP JUMP JUMPDEST PUSH1 0x0 DUP2 CALLDATALOAD SWAP1 POP PUSH2 0x24C DUP2 PUSH2 0x226 JUMP JUMPDEST SWAP3 SWAP2 POP POP JUMP JUMPDEST PUSH1 0x0 DUP2 SWAP1 POP SWAP2 SWAP1 POP JUMP JUMPDEST PUSH2 0x265 DUP2 PUSH2 0x252 JUMP JUMPDEST DUP2 EQ PUSH2 0x270 JUMPI PUSH1 0x0 DUP1 REVERT JUMPDEST POP JUMP JUMPDEST PUSH1 0x0 DUP2 CALLDATALOAD SWAP1 POP PUSH2 0x282 DUP2 PUSH2 0x25C JUMP JUMPDEST SWAP3 SWAP2 POP POP JUMP JUMPDEST PUSH1 0x0 DUP2 SWAP1 POP SWAP2 SWAP1 POP JUMP JUMPDEST PUSH2 0x29B DUP2 PUSH2 0x288 JUMP JUMPDEST DUP2 EQ PUSH2 0x2A6 JUMPI PUSH1 0x0 DUP1 REVERT JUMPDEST POP JUMP JUMPDEST PUSH1 0x0 DUP2 CALLDATALOAD SWAP1 POP PUSH2 0x2B8 DUP2 PUSH2 0x292 JUMP JUMPDEST SWAP3 SWAP2 POP POP JUMP JUMPDEST PUSH1 0x0 DUP1 PUSH1 0x0 DUP1 PUSH1 0x80 DUP6 DUP8 SUB SLT ISZERO PUSH2 0x2D8 JUMPI PUSH2 0x2D7 PUSH2 0x1EF JUMP JUMPDEST JUMPDEST PUSH1 0x0 PUSH2 0x2E6 DUP8 DUP3 DUP9 ADD PUSH2 0x23D JUMP JUMPDEST SWAP5 POP POP PUSH1 0x20 PUSH2 0x2F7 DUP8 DUP3 DUP9 ADD PUSH2 0x23D JUMP JUMPDEST SWAP4 POP POP PUSH1 0x40 PUSH2 0x308 DUP8 DUP3 DUP9 ADD PUSH2 0x273 JUMP JUMPDEST SWAP3 POP POP PUSH1 0x60 PUSH2 0x319 DUP8 DUP3 DUP9 ADD PUSH2 0x2A9 JUMP JUMPDEST SWAP2 POP POP SWAP3 SWAP6 SWAP2 SWAP5 POP SWAP3 POP JUMP JUMPDEST PUSH1 0x0 DUP3 DUP3 MSTORE PUSH1 0x20 DUP3 ADD SWAP1 POP SWAP3 SWAP2 POP POP JUMP JUMPDEST PUSH32 0x5061796D656E74526F757465723A206D65726368616E742063616E6E6F742062 PUSH1 0x0 DUP3 ADD MSTORE PUSH32 0x65207A65726F2061646472657373000000000000000000000000000000000000 PUSH1 0x20 DUP3 ADD MSTORE POP JUMP JUMPDEST PUSH1 0x0 PUSH2 0x392 PUSH1 0x2E DUP4 PUSH2 0x325 JUMP JUMPDEST SWAP2 POP PUSH2 0x39D DUP3 PUSH2 0x336 JUMP JUMPDEST PUSH1 0x40 DUP3 ADD SWAP1 POP SWAP2 SWAP1 POP JUMP JUMPDEST PUSH1 0x0 PUSH1 0x20 DUP3 ADD SWAP1 POP DUP2 DUP2 SUB PUSH1 0x0 DUP4 ADD MSTORE PUSH2 0x3C1 DUP2 PUSH2 0x385 JUMP JUMPDEST SWAP1 POP SWAP2 SWAP1 POP JUMP JUMPDEST PUSH32 0x5061796D656E74526F757465723A20616D6F756E74206D757374206265206772 PUSH1 0x0 DUP3 ADD MSTORE PUSH32 0x6561746572207468616E207A65726F0000000000000000000000000000000000 PUSH1 0x20 DUP3 ADD MSTORE POP JUMP JUMPDEST PUSH1 0x0 PUSH2 0x424 PUSH1 0x2F DUP4 PUSH2 0x325 JUMP JUMPDEST SWAP2 POP PUSH2 0x42F DUP3 PUSH2 0x3C8 JUMP JUMPDEST PUSH1 0x40 DUP3 ADD SWAP1 POP SWAP2 SWAP1 POP JUMP JUMPDEST PUSH1 0x0 PUSH1 0x20 DUP3 ADD SWAP1 POP DUP2 DUP2 SUB PUSH1 0x0 DUP4 ADD MSTORE PUSH2 0x453 DUP2 PUSH2 0x417 JUMP JUMPDEST SWAP1 POP SWAP2 SWAP1 POP JUMP JUMPDEST PUSH2 0x463 DUP2 PUSH2 0x214 JUMP JUMPDEST DUP3 MSTORE POP POP JUMP JUMPDEST PUSH2 0x472 DUP2 PUSH2 0x252 JUMP JUMPDEST DUP3 MSTORE POP POP JUMP JUMPDEST PUSH1 0x0 PUSH1 0x60 DUP3 ADD SWAP1 POP PUSH2 0x48D PUSH1 0x0 DUP4 ADD DUP7 PUSH2 0x45A JUMP JUMPDEST PUSH2 0x49A PUSH1 0x20 DUP4 ADD DUP6 PUSH2 0x45A JUMP JUMPDEST PUSH2 0x4A7 PUSH1 0x40 DUP4 ADD DUP5 PUSH2 0x469 JUMP JUMPDEST SWAP5 SWAP4 POP POP POP POP JUMP JUMPDEST PUSH1 0x0 DUP2 ISZERO ISZERO SWAP1 POP SWAP2 SWAP1 POP JUMP JUMPDEST PUSH2 0x4C4 DUP2 PUSH2 0x4AF JUMP JUMPDEST DUP2 EQ PUSH2 0x4CF JUMPI PUSH1 0x0 DUP1 REVERT JUMPDEST POP JUMP JUMPDEST PUSH1 0x0 DUP2 MLOAD SWAP1 POP PUSH2 0x4E1 DUP2 PUSH2 0x4BB JUMP JUMPDEST SWAP3 SWAP2 POP POP JUMP JUMPDEST PUSH1 0x0 PUSH1 0x20 DUP3 DUP5 SUB SLT ISZERO PUSH2 0x4FD JUMPI PUSH2 0x4FC PUSH2 0x1EF JUMP JUMPDEST JUMPDEST PUSH1 0x0 PUSH2 0x50B DUP5 DUP3 DUP6 ADD PUSH2 0x4D2 JUMP JUMPDEST SWAP2 POP POP SWAP3 SWAP2 POP POP JUMP JUMPDEST PUSH1 0x0 PUSH1 0x60 DUP3 ADD SWAP1 POP PUSH2 0x529 PUSH1 0x0 DUP4 ADD DUP7 PUSH2 0x45A JUMP JUMPDEST PUSH2 0x536 PUSH1 0x20 DUP4 ADD DUP6 PUSH2 0x469 JUMP JUMPDEST PUSH2 0x543 PUSH1 0x40 DUP4 ADD DUP5 PUSH2 0x469 JUMP JUMPDEST SWAP5 SWAP4 POP POP POP POP JUMP INVALID LOG2 PUSH5 0x6970667358 0x22 SLT KECCAK256 BALANCE DUP12 0xBC MSTORE8 PUSH1 0x7 0xE5 0xCB PUSH22 0x2F815DDF4734A671ED25393399D0C2769674921846F3 0xC0 PUSH5 0x736F6C6343 STOP ADDMOD SHR STOP CALLER "
        },
        "methodIdentifiers": {
          "pay(address,address,uint256,bytes32)": "3e8bca68"
        }
      }
    }
  }
}